{
  "_format": "hh-sol-artifact-1",
  "contractName": "IPITdoggieNFT",
  "sourceName": "contracts/IPITdoggieNFT.sol",
  "abi": [
    {
      "inputs": [],
      "stateMutability": "nonpayable",
      "type": "constructor"
    },
    {
      "anonymous": false,
      "inputs": [
        {
          "indexed": true,
          "internalType": "address",
          "name": "owner",
          "type": "address"
        },
        {
          "indexed": true,
          "internalType": "address",
          "name": "approved",
          "type": "address"
        },
        {
          "indexed": true,
          "internalType": "uint256",
          "name": "tokenId",
          "type": "uint256"
        }
      ],
      "name": "Approval",
      "type": "event"
    },
    {
      "anonymous": false,
      "inputs": [
        {
          "indexed": true,
          "internalType": "address",
          "name": "owner",
          "type": "address"
        },
        {
          "indexed": true,
          "internalType": "address",
          "name": "operator",
          "type": "address"
        },
        {
          "indexed": false,
          "internalType": "bool",
          "name": "approved",
          "type": "bool"
        }
      ],
      "name": "ApprovalForAll",
      "type": "event"
    },
    {
      "anonymous": false,
      "inputs": [
        {
          "indexed": true,
          "internalType": "address",
          "name": "previousOwner",
          "type": "address"
        },
        {
          "indexed": true,
          "internalType": "address",
          "name": "newOwner",
          "type": "address"
        }
      ],
      "name": "OwnershipTransferred",
      "type": "event"
    },
    {
      "anonymous": false,
      "inputs": [
        {
          "indexed": true,
          "internalType": "address",
          "name": "from",
          "type": "address"
        },
        {
          "indexed": true,
          "internalType": "address",
          "name": "to",
          "type": "address"
        },
        {
          "indexed": true,
          "internalType": "uint256",
          "name": "tokenId",
          "type": "uint256"
        }
      ],
      "name": "Transfer",
      "type": "event"
    },
    {
      "inputs": [
        {
          "internalType": "address",
          "name": "to",
          "type": "address"
        },
        {
          "internalType": "uint256",
          "name": "tokenId",
          "type": "uint256"
        }
      ],
      "name": "approve",
      "outputs": [],
      "stateMutability": "nonpayable",
      "type": "function"
    },
    {
      "inputs": [
        {
          "internalType": "address",
          "name": "owner",
          "type": "address"
        }
      ],
      "name": "balanceOf",
      "outputs": [
        {
          "internalType": "uint256",
          "name": "",
          "type": "uint256"
        }
      ],
      "stateMutability": "view",
      "type": "function"
    },
    {
      "inputs": [],
      "name": "generalLicense",
      "outputs": [
        {
          "internalType": "string",
          "name": "",
          "type": "string"
        }
      ],
      "stateMutability": "view",
      "type": "function"
    },
    {
      "inputs": [
        {
          "internalType": "uint256",
          "name": "tokenId",
          "type": "uint256"
        }
      ],
      "name": "getApproved",
      "outputs": [
        {
          "internalType": "address",
          "name": "",
          "type": "address"
        }
      ],
      "stateMutability": "view",
      "type": "function"
    },
    {
      "inputs": [
        {
          "internalType": "address",
          "name": "owner",
          "type": "address"
        },
        {
          "internalType": "address",
          "name": "operator",
          "type": "address"
        }
      ],
      "name": "isApprovedForAll",
      "outputs": [
        {
          "internalType": "bool",
          "name": "",
          "type": "bool"
        }
      ],
      "stateMutability": "view",
      "type": "function"
    },
    {
      "inputs": [
        {
          "internalType": "address",
          "name": "recipient",
          "type": "address"
        },
        {
          "internalType": "string",
          "name": "uri",
          "type": "string"
        }
      ],
      "name": "mint",
      "outputs": [
        {
          "internalType": "uint256",
          "name": "",
          "type": "uint256"
        }
      ],
      "stateMutability": "nonpayable",
      "type": "function"
    },
    {
      "inputs": [],
      "name": "name",
      "outputs": [
        {
          "internalType": "string",
          "name": "",
          "type": "string"
        }
      ],
      "stateMutability": "view",
      "type": "function"
    },
    {
      "inputs": [],
      "name": "owner",
      "outputs": [
        {
          "internalType": "address",
          "name": "",
          "type": "address"
        }
      ],
      "stateMutability": "view",
      "type": "function"
    },
    {
      "inputs": [
        {
          "internalType": "uint256",
          "name": "tokenId",
          "type": "uint256"
        }
      ],
      "name": "ownerOf",
      "outputs": [
        {
          "internalType": "address",
          "name": "",
          "type": "address"
        }
      ],
      "stateMutability": "view",
      "type": "function"
    },
    {
      "inputs": [],
      "name": "renounceOwnership",
      "outputs": [],
      "stateMutability": "nonpayable",
      "type": "function"
    },
    {
      "inputs": [
        {
          "internalType": "uint256",
          "name": "_tokenId",
          "type": "uint256"
        },
        {
          "internalType": "uint256",
          "name": "_salePrice",
          "type": "uint256"
        }
      ],
      "name": "royaltyInfo",
      "outputs": [
        {
          "internalType": "address",
          "name": "",
          "type": "address"
        },
        {
          "internalType": "uint256",
          "name": "",
          "type": "uint256"
        }
      ],
      "stateMutability": "view",
      "type": "function"
    },
    {
      "inputs": [
        {
          "internalType": "address",
          "name": "from",
          "type": "address"
        },
        {
          "internalType": "address",
          "name": "to",
          "type": "address"
        },
        {
          "internalType": "uint256",
          "name": "tokenId",
          "type": "uint256"
        }
      ],
      "name": "safeTransferFrom",
      "outputs": [],
      "stateMutability": "nonpayable",
      "type": "function"
    },
    {
      "inputs": [
        {
          "internalType": "address",
          "name": "from",
          "type": "address"
        },
        {
          "internalType": "address",
          "name": "to",
          "type": "address"
        },
        {
          "internalType": "uint256",
          "name": "tokenId",
          "type": "uint256"
        },
        {
          "internalType": "bytes",
          "name": "data",
          "type": "bytes"
        }
      ],
      "name": "safeTransferFrom",
      "outputs": [],
      "stateMutability": "nonpayable",
      "type": "function"
    },
    {
      "inputs": [
        {
          "internalType": "address",
          "name": "operator",
          "type": "address"
        },
        {
          "internalType": "bool",
          "name": "approved",
          "type": "bool"
        }
      ],
      "name": "setApprovalForAll",
      "outputs": [],
      "stateMutability": "nonpayable",
      "type": "function"
    },
    {
      "inputs": [
        {
          "internalType": "bytes4",
          "name": "interfaceId",
          "type": "bytes4"
        }
      ],
      "name": "supportsInterface",
      "outputs": [
        {
          "internalType": "bool",
          "name": "",
          "type": "bool"
        }
      ],
      "stateMutability": "view",
      "type": "function"
    },
    {
      "inputs": [],
      "name": "symbol",
      "outputs": [
        {
          "internalType": "string",
          "name": "",
          "type": "string"
        }
      ],
      "stateMutability": "view",
      "type": "function"
    },
    {
      "inputs": [
        {
          "internalType": "uint256",
          "name": "tokenId",
          "type": "uint256"
        }
      ],
      "name": "tokenURI",
      "outputs": [
        {
          "internalType": "string",
          "name": "",
          "type": "string"
        }
      ],
      "stateMutability": "view",
      "type": "function"
    },
    {
      "inputs": [
        {
          "internalType": "address",
          "name": "from",
          "type": "address"
        },
        {
          "internalType": "address",
          "name": "to",
          "type": "address"
        },
        {
          "internalType": "uint256",
          "name": "tokenId",
          "type": "uint256"
        }
      ],
      "name": "transferFrom",
      "outputs": [],
      "stateMutability": "nonpayable",
      "type": "function"
    },
    {
      "inputs": [
        {
          "internalType": "address",
          "name": "newOwner",
          "type": "address"
        }
      ],
      "name": "transferOwnership",
      "outputs": [],
      "stateMutability": "nonpayable",
      "type": "function"
    }
  ],
  "bytecode": "0x60806040523480156200001157600080fd5b5060405180606001604052806035815260200162001a8660359139806040518060400160405280600e81526020016d1254099255191bd9d9da5953919560921b81525060405180604001604052806006815260200165444f4747494560d01b8152508160029081620000849190620002ef565b506003620000938282620002ef565b505050620000b0620000aa620000ef60201b60201c565b620000f3565b6009620000be8282620002ef565b505050620000e9735b5ac150ff40a56cdb0a8f5676425e4611d6400a6101f46200014560201b60201c565b620003bb565b3390565b600880546001600160a01b038381166001600160a01b0319831681179093556040519116919082907f8be0079c531659141344cd1fd0a4f28419497f9722a3daafe3b4186f6b6457e090600090a35050565b6127106001600160601b0382161115620001b95760405162461bcd60e51b815260206004820152602a60248201527f455243323938313a20726f79616c7479206665652077696c6c206578636565646044820152692073616c65507269636560b01b60648201526084015b60405180910390fd5b6001600160a01b038216620002115760405162461bcd60e51b815260206004820152601960248201527f455243323938313a20696e76616c6964207265636569766572000000000000006044820152606401620001b0565b604080518082019091526001600160a01b039092168083526001600160601b039091166020909201829052600160a01b90910217600055565b634e487b7160e01b600052604160045260246000fd5b600181811c908216806200027557607f821691505b6020821081036200029657634e487b7160e01b600052602260045260246000fd5b50919050565b601f821115620002ea57600081815260208120601f850160051c81016020861015620002c55750805b601f850160051c820191505b81811015620002e657828155600101620002d1565b5050505b505050565b81516001600160401b038111156200030b576200030b6200024a565b62000323816200031c845462000260565b846200029c565b602080601f8311600181146200035b5760008415620003425750858301515b600019600386901b1c1916600185901b178555620002e6565b600085815260208120601f198616915b828110156200038c578886015182559484019460019091019084016200036b565b5085821015620003ab5787850151600019600388901b60f8161c191681555b5050505050600190811b01905550565b6116bb80620003cb6000396000f3fe608060405234801561001057600080fd5b50600436106101215760003560e01c8063715018a6116100ad578063c87b56dd11610071578063c87b56dd14610276578063d0def52114610289578063d7d0b06b1461029c578063e985e9c5146102a4578063f2fde38b146102e057600080fd5b8063715018a61461022f5780638da5cb5b1461023757806395d89b4114610248578063a22cb46514610250578063b88d4fde1461026357600080fd5b806323b872dd116100f457806323b872dd146101a35780632a55205a146101b657806342842e0e146101e85780636352211e146101fb57806370a082311461020e57600080fd5b806301ffc9a71461012657806306fdde031461014e578063081812fc14610163578063095ea7b31461018e575b600080fd5b610139610134366004611091565b6102f3565b60405190151581526020015b60405180910390f35b610156610304565b60405161014591906110f4565b610176610171366004611107565b610396565b6040516001600160a01b039091168152602001610145565b6101a161019c36600461113c565b6103bd565b005b6101a16101b1366004611166565b6104d7565b6101c96101c43660046111a2565b610508565b604080516001600160a01b039093168352602083019190915201610145565b6101a16101f6366004611166565b6105b4565b610176610209366004611107565b6105cf565b61022161021c3660046111c4565b61062f565b604051908152602001610145565b6101a16106b5565b6008546001600160a01b0316610176565b6101566106c9565b6101a161025e3660046111df565b6106d8565b6101a16102713660046112a7565b6106e7565b610156610284366004611107565b61071f565b610221610297366004611323565b61083d565b61015661087d565b6101396102b2366004611385565b6001600160a01b03918216600090815260076020908152604080832093909416825291909152205460ff1690565b6101a16102ee3660046111c4565b61088c565b60006102fe82610905565b92915050565b606060028054610313906113b8565b80601f016020809104026020016040519081016040528092919081815260200182805461033f906113b8565b801561038c5780601f106103615761010080835404028352916020019161038c565b820191906000526020600020905b81548152906001019060200180831161036f57829003601f168201915b5050505050905090565b60006103a182610945565b506000908152600660205260409020546001600160a01b031690565b60006103c8826105cf565b9050806001600160a01b0316836001600160a01b03160361043a5760405162461bcd60e51b815260206004820152602160248201527f4552433732313a20617070726f76616c20746f2063757272656e74206f776e656044820152603960f91b60648201526084015b60405180910390fd5b336001600160a01b0382161480610456575061045681336102b2565b6104c85760405162461bcd60e51b815260206004820152603d60248201527f4552433732313a20617070726f76652063616c6c6572206973206e6f7420746f60448201527f6b656e206f776e6572206f7220617070726f76656420666f7220616c6c0000006064820152608401610431565b6104d283836109a4565b505050565b6104e13382610a12565b6104fd5760405162461bcd60e51b8152600401610431906113f2565b6104d2838383610a91565b60008281526001602090815260408083208151808301909252546001600160a01b038116808352600160a01b9091046001600160601b031692820192909252829161057d5750604080518082019091526000546001600160a01b0381168252600160a01b90046001600160601b031660208201525b60208101516000906127109061059c906001600160601b03168761143f565b6105a69190611464565b915196919550909350505050565b6104d2838383604051806020016040528060008152506106e7565b6000818152600460205260408120546001600160a01b0316806102fe5760405162461bcd60e51b8152602060048201526018602482015277115490cdcc8c4e881a5b9d985b1a59081d1bdad95b88125160421b6044820152606401610431565b60006001600160a01b0382166106995760405162461bcd60e51b815260206004820152602960248201527f4552433732313a2061646472657373207a65726f206973206e6f7420612076616044820152683634b21037bbb732b960b91b6064820152608401610431565b506001600160a01b031660009081526005602052604090205490565b6106bd610bf5565b6106c76000610c4f565b565b606060038054610313906113b8565b6106e3338383610ca1565b5050565b6106f13383610a12565b61070d5760405162461bcd60e51b8152600401610431906113f2565b61071984848484610d6f565b50505050565b6000818152600460205260409020546060906001600160a01b031661079e5760405162461bcd60e51b815260206004820152602f60248201527f4552433732314d657461646174613a2055524920717565727920666f72206e6f60448201526e3732bc34b9ba32b73a103a37b5b2b760891b6064820152608401610431565b6000828152600b6020526040812080546107b7906113b8565b80601f01602080910402602001604051908101604052809291908181526020018280546107e3906113b8565b80156108305780601f1061080557610100808354040283529160200191610830565b820191906000526020600020905b81548152906001019060200180831161081357829003601f168201915b5093979650505050505050565b6000610847610bf5565b610855600a80546001019055565b6000610860600a5490565b905061086c8482610da2565b6108768184610f2d565b9392505050565b606060098054610313906113b8565b610894610bf5565b6001600160a01b0381166108f95760405162461bcd60e51b815260206004820152602660248201527f4f776e61626c653a206e6577206f776e657220697320746865207a65726f206160448201526564647265737360d01b6064820152608401610431565b61090281610c4f565b50565b60006001600160e01b031982166380ac58cd60e01b148061093657506001600160e01b03198216635b5e139f60e01b145b806102fe57506102fe82610f45565b6000818152600460205260409020546001600160a01b03166109025760405162461bcd60e51b8152602060048201526018602482015277115490cdcc8c4e881a5b9d985b1a59081d1bdad95b88125160421b6044820152606401610431565b600081815260066020526040902080546001600160a01b0319166001600160a01b03841690811790915581906109d9826105cf565b6001600160a01b03167f8c5be1e5ebec7d5bd14f71427d1e84f3dd0314c0f7b2291e5b200ac8c7c3b92560405160405180910390a45050565b600080610a1e836105cf565b9050806001600160a01b0316846001600160a01b03161480610a6557506001600160a01b0380821660009081526007602090815260408083209388168352929052205460ff165b80610a895750836001600160a01b0316610a7e84610396565b6001600160a01b0316145b949350505050565b826001600160a01b0316610aa4826105cf565b6001600160a01b031614610aca5760405162461bcd60e51b815260040161043190611486565b6001600160a01b038216610b2c5760405162461bcd60e51b8152602060048201526024808201527f4552433732313a207472616e7366657220746f20746865207a65726f206164646044820152637265737360e01b6064820152608401610431565b826001600160a01b0316610b3f826105cf565b6001600160a01b031614610b655760405162461bcd60e51b815260040161043190611486565b600081815260066020908152604080832080546001600160a01b03199081169091556001600160a01b0387811680865260058552838620805460001901905590871680865283862080546001019055868652600490945282852080549092168417909155905184937fddf252ad1be2c89b69c2b068fc378daa952ba7f163c4a11628f55a4df523b3ef91a4505050565b6008546001600160a01b031633146106c75760405162461bcd60e51b815260206004820181905260248201527f4f776e61626c653a2063616c6c6572206973206e6f7420746865206f776e65726044820152606401610431565b600880546001600160a01b038381166001600160a01b0319831681179093556040519116919082907f8be0079c531659141344cd1fd0a4f28419497f9722a3daafe3b4186f6b6457e090600090a35050565b816001600160a01b0316836001600160a01b031603610d025760405162461bcd60e51b815260206004820152601960248201527f4552433732313a20617070726f766520746f2063616c6c6572000000000000006044820152606401610431565b6001600160a01b03838116600081815260076020908152604080832094871680845294825291829020805460ff191686151590811790915591519182527f17307eab39ab6107e8899845ad3d59bd9653f200f220920489ca2b5937696c31910160405180910390a3505050565b610d7a848484610a91565b610d8684848484610f7a565b6107195760405162461bcd60e51b8152600401610431906114cb565b6001600160a01b038216610df85760405162461bcd60e51b815260206004820181905260248201527f4552433732313a206d696e7420746f20746865207a65726f20616464726573736044820152606401610431565b6000818152600460205260409020546001600160a01b031615610e5d5760405162461bcd60e51b815260206004820152601c60248201527f4552433732313a20746f6b656e20616c7265616479206d696e746564000000006044820152606401610431565b6000818152600460205260409020546001600160a01b031615610ec25760405162461bcd60e51b815260206004820152601c60248201527f4552433732313a20746f6b656e20616c7265616479206d696e746564000000006044820152606401610431565b6001600160a01b038216600081815260056020908152604080832080546001019055848352600490915280822080546001600160a01b0319168417905551839291907fddf252ad1be2c89b69c2b068fc378daa952ba7f163c4a11628f55a4df523b3ef908290a45050565b6000828152600b602052604090206104d2828261156b565b60006001600160e01b0319821663152a902d60e11b14806102fe57506301ffc9a760e01b6001600160e01b03198316146102fe565b60006001600160a01b0384163b1561107057604051630a85bd0160e11b81526001600160a01b0385169063150b7a0290610fbe90339089908890889060040161162b565b6020604051808303816000875af1925050508015610ff9575060408051601f3d908101601f19168201909252610ff691810190611668565b60015b611056573d808015611027576040519150601f19603f3d011682016040523d82523d6000602084013e61102c565b606091505b50805160000361104e5760405162461bcd60e51b8152600401610431906114cb565b805181602001fd5b6001600160e01b031916630a85bd0160e11b149050610a89565b506001949350505050565b6001600160e01b03198116811461090257600080fd5b6000602082840312156110a357600080fd5b81356108768161107b565b6000815180845260005b818110156110d4576020818501810151868301820152016110b8565b506000602082860101526020601f19601f83011685010191505092915050565b60208152600061087660208301846110ae565b60006020828403121561111957600080fd5b5035919050565b80356001600160a01b038116811461113757600080fd5b919050565b6000806040838503121561114f57600080fd5b61115883611120565b946020939093013593505050565b60008060006060848603121561117b57600080fd5b61118484611120565b925061119260208501611120565b9150604084013590509250925092565b600080604083850312156111b557600080fd5b50508035926020909101359150565b6000602082840312156111d657600080fd5b61087682611120565b600080604083850312156111f257600080fd5b6111fb83611120565b91506020830135801515811461121057600080fd5b809150509250929050565b634e487b7160e01b600052604160045260246000fd5b600067ffffffffffffffff8084111561124c5761124c61121b565b604051601f8501601f19908116603f011681019082821181831017156112745761127461121b565b8160405280935085815286868601111561128d57600080fd5b858560208301376000602087830101525050509392505050565b600080600080608085870312156112bd57600080fd5b6112c685611120565b93506112d460208601611120565b925060408501359150606085013567ffffffffffffffff8111156112f757600080fd5b8501601f8101871361130857600080fd5b61131787823560208401611231565b91505092959194509250565b6000806040838503121561133657600080fd5b61133f83611120565b9150602083013567ffffffffffffffff81111561135b57600080fd5b8301601f8101851361136c57600080fd5b61137b85823560208401611231565b9150509250929050565b6000806040838503121561139857600080fd5b6113a183611120565b91506113af60208401611120565b90509250929050565b600181811c908216806113cc57607f821691505b6020821081036113ec57634e487b7160e01b600052602260045260246000fd5b50919050565b6020808252602d908201527f4552433732313a2063616c6c6572206973206e6f7420746f6b656e206f776e6560408201526c1c881bdc88185c1c1c9bdd9959609a1b606082015260800190565b80820281158282048414176102fe57634e487b7160e01b600052601160045260246000fd5b60008261148157634e487b7160e01b600052601260045260246000fd5b500490565b60208082526025908201527f4552433732313a207472616e736665722066726f6d20696e636f72726563742060408201526437bbb732b960d91b606082015260800190565b60208082526032908201527f4552433732313a207472616e7366657220746f206e6f6e20455243373231526560408201527131b2b4bb32b91034b6b83632b6b2b73a32b960711b606082015260800190565b601f8211156104d257600081815260208120601f850160051c810160208610156115445750805b601f850160051c820191505b8181101561156357828155600101611550565b505050505050565b815167ffffffffffffffff8111156115855761158561121b565b6115998161159384546113b8565b8461151d565b602080601f8311600181146115ce57600084156115b65750858301515b600019600386901b1c1916600185901b178555611563565b600085815260208120601f198616915b828110156115fd578886015182559484019460019091019084016115de565b508582101561161b5787850151600019600388901b60f8161c191681555b5050505050600190811b01905550565b6001600160a01b038581168252841660208201526040810183905260806060820181905260009061165e908301846110ae565b9695505050505050565b60006020828403121561167a57600080fd5b81516108768161107b56fea2646970667358221220888336a2e09363869788b7ecfa9e5a9aa1c541e531af98005c490ee4c2ce3dc764736f6c63430008130033697066733a2f2f516d50756a7572384b74626133386b546a397131444d685372727142416a544c317532434d33364d5843575a454d",
  "linkReferences": {},
  "deployedLinkReferences": {}
}